S00C00006D61696E2E7372656373
S11300000C9434000C9451000C9451000C94510045
S11300100C9451000C9451000C9451000C94510018
S11300200C9451000C9451000C9451000C94510008
S11300300C9451000C9451000C9451000C945100F8
S11300400C9451000C9451000C9451000C945100E8
S11300500C9451000C94B0000C9451000C94510079
S11300600C9451000C94510011241FBECFEFD8E022
S1130070DEBFCDBF11E0A0E0B1E0E8EAF3E002C0EA
S113008005900D92A430B107D9F721E0A4E0B1E0C6
S113009001C01D92A630B207E1F70E94E5000C945E
S11300A0D2010C9400009093C5008093C40088E1B1
S11300B08093C1008EE08093C20008959091C000A7
S11300C095FFFCCF8093C60008950F931F93CF93A1
S11300D08C01C0E0F801EC0FF11D8081882321F030
S11300E00E945E00CF5FF6CFCF911F910F910895CC
S11300F0CF93DF93CDB7DEB72A970FB6F894DEBF60
S11301000FBECDBF0E940101DC01CB014AE0BE015C
S11301106F5F7F4F0E949D01CE0101960E94650092
S11301202A960FB6F894DEBF0FBECDBFDF91CF91F4
S113013008958091C00087FFFCCF8091C600809312
S11301400501809105010C945E008091C00087FF39
S1130150FCCF8091C600809305018091050108952C
S11301601F920F920FB60F9211242F933F934F9328
S11301705F936F937F938F939F93AF93BF93EF930B
S1130180FF93609178007091790080E090E00E9484
S113019037010E94780080E091E00E946500EAE760
S11301A0F0E0808180648083FF91EF91BF91AF91F3
S11301B09F918F917F916F915F914F913F912F917B
S11301C00F900FBE0F901F90189589E090E00E9449
S11301D0530080917A008F6880937A0080E4809342
S11301E07C00789480917A00806480937A002FEF69
S11301F08FE398E3215080409040E1F700C0000075
S1130200F6CF0E9408016894B1110C9497010895E7
S11302100E947C0188F09F5798F0B92F9927B75115
S1130220B0F0E1F0660F771F881F991F1AF0BA9596
S1130230C9F714C0B13091F00E949601B1E008955D
S11302400C949601672F782F8827B85F39F0B93F4F
S1130250CCF3869577956795B395D9F73EF4909549
S11302608095709561957F4F8F4F9F4F0895E894C7
S113027009C097FB3EF490958095709561957F4FEA
S11302808F4F9F4F9923A9F0F92F96E9BB27939598
S1130290F695879577956795B795F111F8CFFAF4A8
S11302A0BB0F11F460FF1BC06F5F7F4F8F4F9F4FD9
S11302B016C0882311F096E911C0772321F09EE837
S11302C0872F762F05C0662371F096E8862F70E09D
S11302D060E02AF09A95660F771F881FDAF7880F77
S11302E09695879597F9089557FD9058440F551F93
S11302F059F05F3F71F04795880F97FB991F61F0A4
S11303009F3F79F087950895121613061406551F1A
S1130310F2CF4695F1DF08C0161617061806991F86
S1130320F1CF86957105610508940895E894BB277B
S113033066277727CB0197F90895BB274A3031F414
S1130340992322F4BDE2909581959F4F0C94A901C5
S1130350BB27FB015527AA27880F991FAA1FA4179B
S113036010F0A41B83955051B9F7A05DAA3308F08F
S1130370A95DA193009779F7B111B1931192CB01C3
S11303800C94C201DC01FC01672F71917723E1F722
S1130390329704C07C916D9370836291AE17BF074E
S10B03A0C8F30895F894FFCF9F
S10703A80A0D000036
S9030000FC
